:020000003FD4EB
:020001003FD8E6
:020002003FCCF1
:020003003FCCF0
:020004003FC4F7
:020005003FC4F6
:020006003FC0F9
:020007003FC4F4
:020008003FC8EF
:020009003FCCEA
:02000A003FD4E1
:02000B003FE0D4
:02000C003FECC7
:02000D003FFCB6
:02000E00000CE4
:02000F00001CD3
:020010000030BE
:020011000044A9
:02001200005498
:02001300006487
:02001400007476
:02001500008069
:02001600008464
:0200170000885F
:0200180000885E
:02001900008065
:02001A0000786C
:02001B0000687B
:02001C0000548E
:02001D000038A9
:02001E00001CC4
:02001F003FFCA4
:020020003FDCC3
:020021003FBCE2
:020022003F9C01
:020023003F7C20
:020024003F6437
:020025003F4C4E
:020026003F4059
:020027003F3464
:020028003F3463
:020029003F3C5A
:02002A003F4C49
:02002B003F682C
:02002C003F880B
:02002D003FB0E2
:02002E003FDCB5
:02002F000010BF
:0200300000448A
:02003100007C51
:0200320000B01C
:0200330000E0EB
:02003400010CBD
:02003500012C9C
:0200360001487F
:02003700015472
:02003800015471
:0200390001487C
:02003A00012C97
:02003B000100C2
:02003C0000CCF6
:02003D00008839
:02003E00003C84
:02003F003FEC94
:020040003F94EB
:020041003F3C42
:020042003EE896
:020043003E98E5
:020044003E5428
:020045003E1C5F
:020046003DF08B
:020047003DDC9E
:020048003DDC9D
:020049003DF088
:02004A003E1C5A
:02004B003E5C19
:02004C003EB4C0
:02004D003F1C56
:02004E003F94DD
:02004F00001C93
:0200500000A806
:02005100013478
:0200520001C0EB
:02005300024069
:0200540002B4F4
:02005500031492
:0200560003584D
:02005700037C28
:02005800038023
:02005900036042
:02005A00031C85
:02005B0002B0F1
:02005C00022080
:02005D00017030
:02005E0000A4FC
:02005F003FC49C
:020060003ED090
:020061003DD48C
:020062003CDC84
:020063003BF070
:020064003B1C43
:020065003A64FB
:0200660039D887
:020067003980DE
:020068003960FD
:020069003988D4
:02006A0039F863
:02006B003AB0A9
:02006C003BB89F
:02006D003D1044
:02006E003EB49E
:02006F00009CF3
:0200700002C4C8
:02007100052068
:0200720007ACD9
:020073000A542D
:020074000D106D
:020075000FD0AA
:020076001284F2
:02007700151C56
:020078001788E7
:0200790019C0AC
:02007A001BB0B9
:02007B001D4C1A
:02007C001E90D4
:02007D001F74EE
:02007E001FEC75
:02007F001FF868
:00000001ff
