:020000003FB40B
:020001003FE4DA
:020002003FCCF1
:020003003FD0EC
:020004003FC4F7
:020005003FC4F6
:020006003FC0F9
:020007003FC4F4
:020008003FC4F3
:020009003FC8EE
:02000A003FD0E5
:02000B003FDCD8
:02000C003FE8CB
:02000D003FF4BE
:02000E000004EC
:02000F000014DB
:020010000028C6
:02001100003CB1
:02001200004CA0
:02001300005C8F
:02001400006C7E
:02001500007871
:02001600008464
:0200170000885F
:0200180000885E
:02001900008461
:02001A00007C68
:02001B00007073
:02001C00005C86
:02001D0000449D
:02001E000028B8
:02001F00000CD3
:020020003FECB3
:020021003FC8D6
:020022003FA8F5
:020023003F8814
:020024003F6C2F
:020025003F5842
:020026003F4455
:020027003F3860
:020028003F3463
:020029003F385E
:02002A003F4451
:02002B003F5C38
:02002C003F781B
:02002D003F9CF6
:02002E003FC8C9
:02002F003FFC94
:0200300000309E
:02003100006469
:02003200009834
:0200330000CCFF
:0200340000F8D2
:020035000120A8
:02003600013C8B
:02003700015076
:02003800015471
:02003900014C78
:02003A0001388B
:02003B000114AE
:02003C0000E4DE
:02003D0000A819
:02003E00006060
:02003F000010AF
:020040003FBCC3
:020041003F641A
:020042003F0C71
:020043003EB8C5
:020044003E700C
:020045003E304B
:020046003E007A
:020047003DE496
:020048003DD8A1
:020049003DE494
:02004A003E0472
:02004B003E3C39
:02004C003E8CE8
:02004D003EEC87
:02004E003F6011
:02004F003FE090
:02005000006846
:0200510000F8B5
:02005200018427
:02005300020C9D
:02005400028424
:0200550002ECBB
:02005600033C69
:02005700037034
:0200580003841F
:0200590003742E
:02005A00034061
:02005B0002E4BD
:02005C0002643C
:02005D0001C4DC
:02005E0001009F
:02005F00002877
:020060003F3C23
:020061003E441B
:020062003D4817
:020063003C540B
:020064003B74EB
:020065003AB0AF
:020066003A104E
:0200670039A0BE
:020068003968F5
:020069003970EC
:02006A0039BC9F
:02006B003A5405
:02006C003B3C1B
:02006D003C70E5
:02006E003DF063
:02006F003FBC94
:0200700001C8C5
:02007100041079
:020072000688FE
:0200730009285A
:020074000BDCA3
:020075000E9CDF
:0200760011581F
:0200770013FC78
:020078001680F0
:0200790018D09D
:02007A001AE08A
:02007B001CA0C7
:02007C001E1054
:02007D001F1C46
:02007E001FC0A1
:02007F001FFC64
:00000001ff
