:020000003FAC13
:020001003FDCE2
:020002003FD0ED
:020003003FD0EC
:020004003FC8F3
:020005003FC4F6
:020006003FC4F5
:020007003FC4F4
:020008003FC4F3
:020009003FC8EE
:02000A003FCCE9
:02000B003FD8DC
:02000C003FE0D3
:02000D003FF0C2
:02000E000000F0
:02000F000010DF
:020010000020CE
:020011000034B9
:020012000048A4
:02001300005893
:02001400006882
:02001500007475
:02001600008068
:0200170000885F
:0200180000885E
:0200190000885D
:02001A00008064
:02001B0000746F
:02001C0000647E
:02001D00004C95
:02001E000034AC
:02001F000018C7
:020020003FF8A7
:020021003FD8C6
:020022003FB4E9
:020023003F9408
:020024003F7823
:020025003F603A
:020026003F4C4D
:020027003F3C5C
:020028003F3463
:020029003F385E
:02002A003F4055
:02002B003F5044
:02002C003F6C27
:02002D003F9002
:02002E003FB8D9
:02002F003FE8A8
:02003000001CB2
:0200310000507D
:02003200008448
:0200330000B813
:0200340000E8E2
:020035000114B4
:02003600013493
:0200370001487E
:02003800015471
:02003900015470
:02003A00014083
:02003B0001249E
:02003C0000F8CA
:02003D0000C001
:02003E00007C44
:02003F0000308F
:020040003FDCA3
:020041003F84FA
:020042003F2C51
:020043003ED8A5
:020044003E8CF0
:020045003E4833
:020046003E106A
:020047003DEC8E
:020048003DD8A1
:020049003DDC9C
:02004A003DF87F
:02004B003E2451
:02004C003E6C08
:02004D003EC4AF
:02004E003F343D
:02004F003FACC4
:0200500000347A
:0200510000C0ED
:0200520001505B
:0200530001D8D2
:02005400025850
:0200550002C8DF
:02005600032085
:02005700036044
:02005800038023
:02005900037C26
:02005A00035849
:02005B00030C94
:02005C00029808
:02005D0002049B
:02005E00014C53
:02005F00007C23
:020060003F94CB
:020061003EA0BF
:020062003DA4BB
:020063003CB0AF
:020064003BC897
:020065003AF46B
:020066003A4816
:0200670039C49A
:020068003974E9
:020069003964F8
:02006A003998C3
:02006B003A1445
:02006C003ADC7C
:02006D003BF462
:02006E003D5CF7
:02006F003F0C44
:0200700001008D
:02007100033456
:02007200059CEB
:02007300082C57
:020074000ADCA4
:020075000D98E4
:02007600105424
:02007700130470
:020078001594DD
:0200790017FC72
:02007A001A2446
:02007B001C0463
:02007C001D94D1
:02007D001EC49F
:02007E001F94CD
:02007F001FF868
:00000001ff
