:020000003FD0EF
:020001003FDCE2
:020002003FCCF1
:020003003FCCF0
:020004003FC4F7
:020005003FC4F6
:020006003FC0F9
:020007003FC4F4
:020008003FC8EF
:020009003FCCEA
:02000A003FD4E1
:02000B003FE0D4
:02000C003FECC7
:02000D003FFCB6
:02000E00000CE4
:02000F00001CD3
:020010000030BE
:020011000040AD
:02001200005498
:02001300006487
:02001400007476
:02001500007C6D
:02001600008464
:0200170000885F
:0200180000885E
:02001900008461
:02001A0000786C
:02001B0000687B
:02001C0000548E
:02001D00003CA5
:02001E000020C0
:02001F000000DF
:020020003FE0BF
:020021003FBCE2
:020022003F9C01
:020023003F801C
:020024003F6437
:020025003F504A
:020026003F4059
:020027003F3860
:020028003F3463
:020029003F3C5A
:02002A003F4C49
:02002B003F6430
:02002C003F840F
:02002D003FACE6
:02002E003FDCB5
:02002F00000CC3
:0200300000448A
:02003100007855
:0200320000AC20
:0200330000DCEF
:020034000108C1
:02003500012C9C
:02003600014483
:02003700015472
:02003800015471
:0200390001487C
:02003A00012C97
:02003B000104BE
:02003C0000D0F2
:02003D00008C35
:02003E0000447C
:02003F003FF090
:020040003F98E7
:020041003F443A
:020042003EEC92
:020043003E9CE1
:020044003E5824
:020045003E1C5F
:020046003DF487
:020047003DDC9E
:020048003DD8A1
:020049003DEC8C
:02004A003E185E
:02004B003E581D
:02004C003EACC8
:02004D003F145E
:02004E003F8CE5
:02004F0000109F
:02005000009C12
:02005100012C80
:0200520001B8F3
:02005300023871
:0200540002ACFC
:02005500030C9A
:02005600035451
:02005700037C28
:02005800038023
:0200590003643E
:02005A00032081
:02005B0002B8E9
:02005C00022C74
:02005D00017C24
:02005E0000B4EC
:02005F003FD090
:020060003EE080
:020061003DE47C
:020062003CEC74
:020063003C005F
:020064003B2837
:020065003A70EF
:0200660039E07F
:020067003984DA
:020068003960FD
:020069003984D8
:02006A0039EC6F
:02006B003AA4B5
:02006C003BA8AF
:02006D003CF85D
:02006E003E94BE
:02006F00007817
:02007000029CF0
:0200710004F891
:02007200078005
:020073000A2859
:020074000CE49A
:020075000FA4D6
:0200760012581E
:0200770014F47F
:0200780017640B
:02007900199CD0
:02007A001B90D9
:02007B001D3432
:02007C001E80E4
:02007D001F68FA
:02007E001FE47D
:02007F001FFC64
:00000001ff
