:020000003FAC13
:020001003FDCE2
:020002003FD4E9
:020003003FD0EC
:020004003FC8F3
:020005003FC4F6
:020006003FC4F5
:020007003FC4F4
:020008003FC4F3
:020009003FC8EE
:02000A003FCCE9
:02000B003FD4E0
:02000C003FE0D3
:02000D003FF0C2
:02000E003FFCB5
:02000F000010DF
:020010000020CE
:020011000034B9
:020012000044A8
:02001300005893
:02001400006882
:02001500007475
:02001600008068
:0200170000885F
:0200180000885E
:0200190000885D
:02001A00008064
:02001B0000746F
:02001C0000647E
:02001D00005091
:02001E000034AC
:02001F000018C7
:020020003FF8A7
:020021003FD8C6
:020022003FB8E5
:020023003F9804
:020024003F7823
:020025003F603A
:020026003F4C4D
:020027003F3C5C
:020028003F3463
:020029003F3462
:02002A003F4055
:02002B003F5044
:02002C003F6C27
:02002D003F8C06
:02002E003FB4DD
:02002F003FE4AC
:020030000018B6
:02003100004C81
:02003200008448
:0200330000B813
:0200340000E8E2
:020035000110B8
:02003600013097
:0200370001487E
:02003800015471
:02003900015470
:02003A0001447F
:02003B0001249E
:02003C0000FCC6
:02003D0000C4FD
:02003E00008040
:02003F0000348B
:020040003FE09F
:020041003F88F6
:020042003F304D
:020043003EDCA1
:020044003E90EC
:020045003E4C2F
:020046003E1466
:020047003DEC8E
:020048003DDC9D
:020049003DDC9C
:02004A003DF483
:02004B003E2451
:02004C003E680C
:02004D003EC0B3
:02004E003F2C45
:02004F003FA4CC
:02005000002C82
:0200510000B8F5
:02005200014863
:0200530001D0DA
:02005400025058
:0200550002C0E7
:02005600031C89
:02005700035C48
:02005800038023
:02005900038022
:02005A00035C45
:02005B00031090
:02005C0002A000
:02005D00020C93
:02005E00015847
:02005F00008817
:020060003FA4BB
:020061003EB0AF
:020062003DB4AB
:020063003CC09F
:020064003BD48B
:020065003B005E
:020066003A500E
:0200670039C896
:020068003978E5
:020069003964F8
:02006A003994C7
:02006B003A0C4D
:02006C003AD088
:02006D003BE076
:02006E003D440F
:02006F003EEC65
:0200700000E0AE
:02007100030C7E
:02007200057413
:02007300080083
:020074000AB0D0
:020075000D6C10
:02007600102C4C
:0200770012DC99
:02007800157001
:0200790017D49A
:02007A001A0466
:02007B001BE880
:02007C001D7CE9
:02007D001EB4AF
:02007E001F88D9
:02007F001FF46C
:00000001ff
