:020000003FB00F
:020001003FE4DA
:020002003FCCF1
:020003003FD0EC
:020004003FC4F7
:020005003FC4F6
:020006003FC0F9
:020007003FC4F4
:020008003FC4F3
:020009003FC8EE
:02000A003FD0E5
:02000B003FD8DC
:02000C003FE4CF
:02000D003FF4BE
:02000E000004EC
:02000F000014DB
:020010000024CA
:020011000038B5
:02001200004CA0
:02001300005C8F
:02001400006C7E
:02001500007871
:02001600008068
:0200170000885F
:0200180000885E
:02001900008461
:02001A00007C68
:02001B00007073
:02001C00006082
:02001D00004899
:02001E00002CB4
:02001F000010CF
:020020003FF0AF
:020021003FD0CE
:020022003FACF1
:020023003F8C10
:020024003F702B
:020025003F5842
:020026003F4455
:020027003F3860
:020028003F3463
:020029003F385E
:02002A003F4451
:02002B003F583C
:02002C003F741F
:02002D003F98FA
:02002E003FC4CD
:02002F003FF49C
:020030000028A6
:02003100005C71
:02003200009438
:0200330000C407
:0200340000F4D6
:02003500011CAC
:02003600013C8B
:02003700014C7A
:02003800015471
:02003900015074
:02003A00013C87
:02003B000118AA
:02003C0000ECD6
:02003D0000B011
:02003E00006858
:02003F00001CA3
:020040003FC4BB
:020041003F6C12
:020042003F1865
:020043003EC4B9
:020044003E7804
:020045003E3843
:020046003E0872
:020047003DE496
:020048003DD8A1
:020049003DE098
:02004A003E0076
:02004B003E3441
:02004C003E80F4
:02004D003EE093
:02004E003F5021
:02004F003FD0A0
:02005000005856
:0200510000E4C9
:02005200017437
:0200530001FCAE
:02005400027434
:0200550002E0C7
:02005600033471
:02005700036C38
:0200580003841F
:0200590003782A
:02005A00034859
:02005B0002F0B1
:02005C00027828
:02005D0001D8C8
:02005E00011C83
:02005F0000445B
:020060003F5807
:020061003E60FF
:020062003D68F7
:020063003C74EB
:020064003B90CF
:020065003AC49B
:020066003A203E
:0200670039A8B6
:02006800396CF1
:020069003968F4
:02006A0039B0AB
:02006B003A4019
:02006C003B1C3B
:02006D003C480D
:02006E003DC093
:02006F003F80D0
:02007000018409
:0200710003C8C2
:0200720006384E
:0200730008D4AF
:020074000B88F7
:020075000E4437
:02007600110077
:0200770013ACC8
:02007800163040
:020079001888E5
:02007A001AA0CA
:02007B001C70F7
:02007C001DE87D
:02007D001F0062
:02007E001FB4AD
:02007F001FFC64
:00000001ff
