:020000003FC0FF
:020001003FE0DE
:020002003FCCF1
:020003003FD0EC
:020004003FC4F7
:020005003FC4F6
:020006003FC0F9
:020007003FC4F4
:020008003FC4F3
:020009003FCCEA
:02000A003FD4E1
:02000B003FDCD8
:02000C003FE8CB
:02000D003FF8BA
:02000E000008E8
:02000F000018D7
:02001000002CC2
:020011000040AD
:0200120000509C
:0200130000608B
:0200140000707A
:02001500007C6D
:02001600008464
:0200170000885F
:0200180000885E
:02001900008461
:02001A00007C68
:02001B00006C77
:02001C0000588A
:02001D000040A1
:02001E000024BC
:02001F000004DB
:020020003FE4BB
:020021003FC4DA
:020022003FA4F9
:020023003F8418
:020024003F6833
:020025003F5446
:020026003F4059
:020027003F3860
:020028003F3463
:020029003F3C5A
:02002A003F484D
:02002B003F6034
:02002C003F8013
:02002D003FA4EE
:02002E003FD0C1
:02002F000004CB
:02003000003896
:0200310000705D
:0200320000A428
:0200330000D4F7
:020034000100C9
:020035000128A0
:02003600014087
:02003700015076
:02003800015471
:02003900014C78
:02003A0001348F
:02003B00010CB6
:02003C0000D8EA
:02003D00009C25
:02003E00005070
:02003F000000BF
:020040003FACD3
:020041003F542A
:020042003EFC82
:020043003EACD1
:020044003E6418
:020045003E2853
:020046003DF883
:020047003DE09A
:020048003DD8A1
:020049003DE890
:02004A003E0C6A
:02004B003E4C29
:02004C003E9CD8
:02004D003F0072
:02004E003F74FD
:02004F003FF878
:0200500000842A
:0200510001109C
:02005200019C0F
:02005300022485
:02005400029810
:0200550002FCAB
:0200560003485D
:0200570003782C
:0200580003841F
:02005900036C36
:02005A00033071
:02005B0002D0D1
:02005C00024858
:02005D0001A000
:02005E0000DCC4
:02005F003FFC64
:020060003F0C53
:020061003E144B
:020062003D1C43
:020063003C2C33
:020064003B4C13
:020065003A8CD3
:0200660039F46B
:020067003990CE
:020068003964F9
:020069003978E4
:02006A0039D487
:02006B003A7CDD
:02006C003B70E7
:02006D003CB4A1
:02006E003E4012
:02006F00001877
:0200700002305C
:02007100048405
:02007200070481
:0200730009A8DA
:020074000C601E
:020075000F205A
:0200760011D89F
:020077001478FB
:0200780016F080
:02007900193438
:02007A001B3831
:02007B001CEC7B
:02007C001E481C
:02007D001F4022
:02007E001FD48D
:02007F001FFC64
:00000001ff
