:020000003FCCF3
:020001003FDCE2
:020002003FCCF1
:020003003FCCF0
:020004003FC4F7
:020005003FC4F6
:020006003FC0F9
:020007003FC4F4
:020008003FC4F3
:020009003FCCEA
:02000A003FD4E1
:02000B003FDCD8
:02000C003FECC7
:02000D003FF8BA
:02000E000008E8
:02000F00001CD3
:02001000002CC2
:020011000040AD
:02001200005498
:02001300006487
:0200140000707A
:02001500007C6D
:02001600008464
:0200170000885F
:0200180000885E
:02001900008461
:02001A0000786C
:02001B0000687B
:02001C0000548E
:02001D00003CA5
:02001E000020C0
:02001F000000DF
:020020003FE0BF
:020021003FC0DE
:020022003FA0FD
:020023003F801C
:020024003F6437
:020025003F504A
:020026003F4059
:020027003F3860
:020028003F3463
:020029003F3C5A
:02002A003F4C49
:02002B003F6430
:02002C003F840F
:02002D003FACE6
:02002E003FD8B9
:02002F000008C7
:0200300000408E
:02003100007459
:0200320000A824
:0200330000DCEF
:020034000108C1
:02003500012C9C
:02003600014483
:02003700015472
:02003800015471
:0200390001487C
:02003A00013093
:02003B000108BA
:02003C0000D4EE
:02003D00009031
:02003E00004878
:02003F003FF48C
:020040003FA0DF
:020041003F4836
:020042003EF08E
:020043003EA0DD
:020044003E5C20
:020045003E205B
:020046003DF487
:020047003DDC9E
:020048003DD8A1
:020049003DEC8C
:02004A003E1462
:02004B003E5421
:02004C003EA8CC
:02004D003F1062
:02004E003F84ED
:02004F000008A7
:0200500000941A
:02005100012488
:0200520001B0FB
:02005300023079
:0200540002A800
:0200550003089E
:02005600035055
:0200570003782C
:0200580003841F
:0200590003683A
:02005A00032879
:02005B0002C0E1
:02005C0002346C
:02005D00018818
:02005E0000C0E0
:02005F003FE080
:020060003EF070
:020061003DF46C
:020062003CFC64
:020063003C0C53
:020064003B342B
:020065003A78E7
:0200660039E877
:020067003988D6
:020068003960FD
:020069003980DC
:02006A0039E477
:02006B003A94C5
:02006C003B94C3
:02006D003CE075
:02006E003E78DA
:02006F00005837
:02007000027814
:0200710004D0B9
:0200720007582D
:0200730009FC86
:020074000CB8C6
:020075000F7802
:02007600122C4A
:0200770014C8AB
:02007800173C33
:02007900197CF0
:02007A001B74F5
:02007B001D1C4A
:02007C001E6CF8
:02007D001F5C06
:02007E001FE081
:02007F001FFC64
:00000001ff
