:020000003FD8E7
:020001003FD8E6
:020002003FCCF1
:020003003FCCF0
:020004003FC4F7
:020005003FC4F6
:020006003FC4F5
:020007003FC4F4
:020008003FC8EF
:020009003FCCEA
:02000A003FD4E1
:02000B003FE0D4
:02000C003FECC7
:02000D003FFCB6
:02000E00000CE4
:02000F000020CF
:020010000030BE
:020011000044A9
:02001200005498
:02001300006487
:02001400007476
:02001500008069
:02001600008860
:0200170000885F
:0200180000885E
:02001900008065
:02001A00007470
:02001B0000647F
:02001C00005092
:02001D000038A9
:02001E00001CC4
:02001F003FFCA4
:020020003FDCC3
:020021003FB8E6
:020022003F9805
:020023003F7C20
:020024003F603B
:020025003F4C4E
:020026003F3C5D
:020027003F3464
:020028003F3463
:020029003F4056
:02002A003F5045
:02002B003F682C
:02002C003F8C07
:02002D003FB4DE
:02002E003FE0B1
:02002F000014BB
:02003000004886
:0200310000804D
:0200320000B418
:0200330000E4E7
:02003400010CBD
:02003500013098
:0200360001487F
:02003700015472
:02003800015471
:02003900014480
:02003A0001289B
:02003B000100C2
:02003C0000C8FA
:02003D0000843D
:02003E00003888
:02003F003FE49C
:020040003F90EF
:020041003F3846
:020042003EE49A
:020043003E94E9
:020044003E502C
:020045003E1863
:020046003DF08B
:020047003DDC9E
:020048003DDC9D
:020049003DF088
:02004A003E2056
:02004B003E6015
:02004C003EB8BC
:02004D003F244E
:02004E003F9CD5
:02004F0000248B
:0200500000B0FE
:02005100013C70
:0200520001C8E3
:02005300024861
:0200540002BCEC
:0200550003188E
:0200560003584D
:02005700037C28
:02005800038023
:02005900035C46
:02005A0003148D
:02005B0002A8F9
:02005C00021888
:02005D0001643C
:02005E00009808
:02005F003FB4AC
:020060003EC0A0
:020061003DC49C
:020062003CCC94
:020063003BE47C
:020064003B0C53
:020065003A5807
:0200660039D08F
:02006700397CE2
:020068003964F9
:02006900398CD0
:02006A003A005A
:02006B003AC099
:02006C003BCC8B
:02006D003D282C
:02006E003ED082
:02006F0000BCD3
:0200700002E8A4
:02007100054840
:0200720007D8AD
:020073000A8001
:020074000D403D
:020075000FFC7E
:0200760012B0C6
:0200770015442E
:0200780017B0BF
:0200790019E08C
:02007A001BCC9D
:02007B001D6402
:02007C001EA4C0
:02007D001F7CE6
:02007E001FF071
:02007F001FF868
:00000001ff
