:020000003FAC13
:020001003FE4DA
:020002003FCCF1
:020003003FD0EC
:020004003FC4F7
:020005003FC4F6
:020006003FC0F9
:020007003FC4F4
:020008003FC4F3
:020009003FC8EE
:02000A003FD0E5
:02000B003FD8DC
:02000C003FE4CF
:02000D003FF0C2
:02000E000000F0
:02000F000014DB
:020010000024CA
:020011000038B5
:020012000048A4
:02001300005C8F
:02001400006C7E
:02001500007871
:02001600008068
:0200170000885F
:0200180000885E
:0200190000885D
:02001A00008064
:02001B00007073
:02001C00006082
:02001D00004899
:02001E000030B0
:02001F000010CF
:020020003FF0AF
:020021003FD0CE
:020022003FB0ED
:020023003F900C
:020024003F7427
:020025003F5C3E
:020026003F4851
:020027003F3C5C
:020028003F3463
:020029003F385E
:02002A003F4451
:02002B003F583C
:02002C003F741F
:02002D003F98FA
:02002E003FC0D1
:02002F003FF0A0
:020030000024AA
:02003100005C71
:0200320000903C
:0200330000C407
:0200340000F0DA
:020035000118B0
:0200360001388F
:02003700014C7A
:02003800015471
:02003900015074
:02003A00013C87
:02003B00011CA6
:02003C0000F0D2
:02003D0000B40D
:02003E00006C54
:02003F0000209F
:020040003FCCB3
:020041003F740A
:020042003F1C61
:020043003EC8B5
:020044003E7C00
:020045003E3C3F
:020046003E0872
:020047003DE892
:020048003DD8A1
:020049003DE098
:02004A003DFC7B
:02004B003E3045
:02004C003E7CF8
:02004D003ED89B
:02004E003F4829
:02004F003FC8A8
:0200500000505E
:0200510000DCD1
:02005200016843
:0200530001F4B6
:02005400027038
:0200550002DCCB
:02005600033075
:0200570003683C
:0200580003841F
:0200590003782A
:02005A00034C55
:02005B0002F8A9
:02005C00028020
:02005D0001E4BC
:02005E00012877
:02005F0000504F
:020060003F68F7
:020061003E70EF
:020062003D78E7
:020063003C84DB
:020064003B9CC3
:020065003AD08F
:020066003A2836
:0200670039B0AE
:02006800396CF1
:020069003968F4
:02006A0039A8B3
:02006B003A3425
:02006C003B0C4B
:02006D003C3025
:02006E003DA4AF
:02006F003F64EC
:02007000016429
:0200710003A0EA
:02007200061076
:0200730008A8DB
:020074000B5C23
:020075000E1C5F
:0200760010D8A0
:020077001380F4
:02007800160C64
:02007900186409
:02007A001A84E6
:02007B001C5413
:02007C001DD491
:02007D001EF073
:02007E001FACB5
:02007F001FFC64
:00000001ff
