:020000003FBC03
:020001003FE4DA
:020002003FCCF1
:020003003FD0EC
:020004003FC4F7
:020005003FC4F6
:020006003FC0F9
:020007003FC4F4
:020008003FC4F3
:020009003FCCEA
:02000A003FD0E5
:02000B003FDCD8
:02000C003FE8CB
:02000D003FF8BA
:02000E000008E8
:02000F000018D7
:02001000002CC2
:02001100003CB1
:0200120000509C
:0200130000608B
:0200140000707A
:02001500007C6D
:02001600008464
:0200170000885F
:0200180000885E
:02001900008461
:02001A00007C68
:02001B00006C77
:02001C0000588A
:02001D000040A1
:02001E000024BC
:02001F000008D7
:020020003FE8B7
:020021003FC4DA
:020022003FA4F9
:020023003F8814
:020024003F6C2F
:020025003F5446
:020026003F4455
:020027003F3860
:020028003F3463
:020029003F385E
:02002A003F484D
:02002B003F5C38
:02002C003F7C17
:02002D003FA4EE
:02002E003FD0C1
:02002F000000CF
:0200300000349A
:02003100006C61
:0200320000A02C
:0200330000D0FB
:020034000100C9
:020035000124A4
:02003600014087
:02003700015076
:02003800015471
:02003900014C78
:02003A0001348F
:02003B000110B2
:02003C0000DCE6
:02003D0000A021
:02003E00005868
:02003F000004BB
:020040003FB0CF
:020041003F5826
:020042003F007D
:020043003EB0CD
:020044003E6814
:020045003E2C4F
:020046003DFC7F
:020047003DE09A
:020048003DD8A1
:020049003DE890
:02004A003E0C6A
:02004B003E4431
:02004C003E94E0
:02004D003EF87B
:02004E003F7001
:02004F003FF080
:02005000007C32
:020051000108A4
:02005200019417
:02005300021C8D
:02005400029414
:0200550002F8AF
:02005600034461
:02005700037430
:0200580003841F
:02005900037032
:02005A0003346D
:02005B0002D8C9
:02005C0002544C
:02005D0001ACF4
:02005E0000E8B8
:02005F00000C93
:020060003F1C43
:020061003E243B
:020062003D2837
:020063003C3827
:020064003B5C03
:020065003A98C7
:0200660039FC63
:020067003994CA
:020068003964F9
:020069003974E8
:02006A0039CC8F
:02006B003A6CED
:02006C003B5CFB
:02006D003C9CB9
:02006E003E282A
:02006F003FF858
:0200700002107C
:02007100045C2D
:0200720006DCAA
:02007300097C06
:020074000C344A
:020075000EF487
:0200760011ACCB
:02007700145023
:0200780016CCA4
:02007900191458
:02007A001B1C4D
:02007B001CD493
:02007C001E3430
:02007D001F342E
:02007E001FD091
:02007F001FFC64
:00000001ff
