:020000003FC8F7
:020001003FE0DE
:020002003FCCF1
:020003003FCCF0
:020004003FC4F7
:020005003FC4F6
:020006003FC0F9
:020007003FC4F4
:020008003FC4F3
:020009003FCCEA
:02000A003FD4E1
:02000B003FDCD8
:02000C003FE8CB
:02000D003FF8BA
:02000E000008E8
:02000F00001CD3
:02001000002CC2
:020011000040AD
:0200120000509C
:0200130000608B
:0200140000707A
:02001500007C6D
:02001600008464
:0200170000885F
:0200180000885E
:02001900008461
:02001A0000786C
:02001B00006C77
:02001C0000588A
:02001D000040A1
:02001E000024BC
:02001F000004DB
:020020003FE4BB
:020021003FC0DE
:020022003FA0FD
:020023003F8418
:020024003F6833
:020025003F504A
:020026003F4059
:020027003F3860
:020028003F3463
:020029003F3C5A
:02002A003F484D
:02002B003F6034
:02002C003F8013
:02002D003FA8EA
:02002E003FD4BD
:02002F000008C7
:02003000003C92
:0200310000705D
:0200320000A824
:0200330000D8F3
:020034000104C5
:020035000128A0
:02003600014483
:02003700015472
:02003800015471
:0200390001487C
:02003A00013093
:02003B000108BA
:02003C0000D8EA
:02003D00009829
:02003E00004C74
:02003F003FFC84
:020040003FA4DB
:020041003F4C32
:020042003EF886
:020043003EA8D5
:020044003E601C
:020045003E2457
:020046003DF883
:020047003DE09A
:020048003DD8A1
:020049003DE890
:02004A003E1066
:02004B003E5025
:02004C003EA0D4
:02004D003F086A
:02004E003F7CF5
:02004F000000AF
:02005000008C22
:02005100011C90
:0200520001A803
:02005300022C7D
:0200540002A008
:020055000304A2
:02005600034C59
:0200570003782C
:0200580003841F
:02005900036C36
:02005A00032C75
:02005B0002C8D9
:02005C00024060
:02005D0001940C
:02005E0000CCD4
:02005F003FF070
:020060003EFC64
:020061003E045B
:020062003D0C53
:020063003C1C43
:020064003B401F
:020065003A84DB
:0200660039F06F
:02006700398CD2
:020068003960FD
:02006900397CE0
:02006A0039DC7F
:02006B003A88D1
:02006C003B80D7
:02006D003CC88D
:02006E003E5CF6
:02006F00003857
:02007000025438
:0200710004ACDD
:02007200072C59
:0200730009D4AE
:020074000C8CF2
:020075000F4C2E
:02007600120076
:0200770014A0D3
:02007800171857
:02007900195814
:02007A001B5811
:02007B001D0462
:02007C001E5C08
:02007D001F5012
:02007E001FDC85
:02007F001FFC64
:00000001ff
