:020000003FB807
:020001003FE4DA
:020002003FCCF1
:020003003FD0EC
:020004003FC4F7
:020005003FC4F6
:020006003FC0F9
:020007003FC4F4
:020008003FC4F3
:020009003FCCEA
:02000A003FD0E5
:02000B003FDCD8
:02000C003FE8CB
:02000D003FF4BE
:02000E000004EC
:02000F000018D7
:020010000028C6
:02001100003CB1
:02001200004CA0
:0200130000608B
:02001400006C7E
:02001500007C6D
:02001600008464
:0200170000885F
:0200180000885E
:02001900008461
:02001A00007C68
:02001B00006C77
:02001C00005C86
:02001D0000449D
:02001E000028B8
:02001F000008D7
:020020003FE8B7
:020021003FC8D6
:020022003FA8F5
:020023003F8814
:020024003F6C2F
:020025003F5446
:020026003F4455
:020027003F3860
:020028003F3463
:020029003F385E
:02002A003F484D
:02002B003F5C38
:02002C003F7C17
:02002D003FA0F2
:02002E003FCCC5
:02002F003FFC94
:0200300000309E
:02003100006865
:02003200009C30
:0200330000D0FB
:0200340000FCCE
:020035000124A4
:02003600014087
:02003700015076
:02003800015471
:02003900014C78
:02003A0001388B
:02003B000114AE
:02003C0000E0E2
:02003D0000A41D
:02003E00005C64
:02003F00000CB3
:020040003FB4CB
:020041003F5C22
:020042003F0875
:020043003EB4C9
:020044003E6C10
:020045003E2C4F
:020046003E007A
:020047003DE09A
:020048003DD8A1
:020049003DE494
:02004A003E086E
:02004B003E4035
:02004C003E90E4
:02004D003EF47F
:02004E003F6809
:02004F003FE888
:0200500000703E
:020051000100AC
:02005200018C1F
:02005300021495
:02005400028C1C
:0200550002F0B7
:02005600034065
:02005700037430
:0200580003841F
:02005900037032
:02005A00033C65
:02005B0002DCC5
:02005C00025C44
:02005D0001B8E8
:02005E0000F4AC
:02005F00001887
:020060003F2C33
:020061003E342B
:020062003D3827
:020063003C4817
:020064003B68F7
:020065003AA4BB
:020066003A0856
:020067003998C6
:020068003964F9
:020069003970EC
:02006A0039C497
:02006B003A60F9
:02006C003B4C0B
:02006D003C88CD
:02006E003E0C46
:02006F003FDC74
:0200700001ECA1
:02007100043851
:0200720006B4D2
:02007300095032
:020074000C0876
:020075000EC8B3
:020076001180F7
:0200770014244F
:0200780016A4CC
:0200790018F07D
:02007A001AFC6E
:02007B001CBCAB
:02007C001E2044
:02007D001F283A
:02007E001FC899
:02007F001FFC64
:00000001ff
