:020000003FB40B
:020001003FE4DA
:020002003FCCF1
:020003003FD0EC
:020004003FC4F7
:020005003FC4F6
:020006003FC0F9
:020007003FC4F4
:020008003FC4F3
:020009003FC8EE
:02000A003FD0E5
:02000B003FD8DC
:02000C003FE4CF
:02000D003FF4BE
:02000E000004EC
:02000F000014DB
:020010000028C6
:020011000038B5
:02001200004CA0
:02001300005C8F
:02001400006C7E
:02001500007871
:02001600008464
:0200170000885F
:0200180000885E
:02001900008461
:02001A00007C68
:02001B00007073
:02001C00005C86
:02001D0000449D
:02001E00002CB4
:02001F00000CD3
:020020003FECB3
:020021003FCCD2
:020022003FACF1
:020023003F8C10
:020024003F702B
:020025003F5842
:020026003F4455
:020027003F3860
:020028003F3463
:020029003F385E
:02002A003F4451
:02002B003F583C
:02002C003F781B
:02002D003F9CF6
:02002E003FC8C9
:02002F003FF898
:02003000002CA2
:0200310000606D
:02003200009834
:0200330000C803
:0200340000F8D2
:02003500011CAC
:02003600013C8B
:02003700015076
:02003800015471
:02003900015074
:02003A0001388B
:02003B000118AA
:02003C0000E8DA
:02003D0000AC15
:02003E0000645C
:02003F000014AB
:020040003FC0BF
:020041003F6816
:020042003F106D
:020043003EC0BD
:020044003E7408
:020045003E3447
:020046003E0476
:020047003DE496
:020048003DD8A1
:020049003DE494
:02004A003E0472
:02004B003E383D
:02004C003E84F0
:02004D003EE48F
:02004E003F5819
:02004F003FD898
:0200500000604E
:0200510000F0BD
:02005200017C2F
:020053000204A5
:02005400027C2C
:0200550002E8BF
:0200560003386D
:02005700036C38
:0200580003841F
:0200590003742E
:02005A0003445D
:02005B0002ECB5
:02005C00026C34
:02005D0001CCD4
:02005E0001108F
:02005F0000346B
:020060003F4817
:020061003E540B
:020062003D5807
:020063003C64FB
:020064003B80DF
:020065003AB8A7
:020066003A1846
:0200670039A4BA
:020068003968F5
:02006900396CF0
:02006A0039B4A7
:02006B003A4811
:02006C003B2C2B
:02006D003C5CF9
:02006E003DD87B
:02006F003F9CB4
:0200700001A8E5
:0200710003EC9E
:02007200066026
:0200730008FC87
:020074000BB4CB
:020075000E700B
:02007600112C4B
:0200770013D4A0
:02007800165818
:0200790018ACC1
:02007A001AC0AA
:02007B001C88DF
:02007C001DFC69
:02007D001F0C56
:02007E001FBCA5
:02007F001FFC64
:00000001ff
