:020000003FAC13
:020001003FE0DE
:020002003FD0ED
:020003003FD0EC
:020004003FC8F3
:020005003FC4F6
:020006003FC4F5
:020007003FC4F4
:020008003FC4F3
:020009003FC8EE
:02000A003FD0E5
:02000B003FD8DC
:02000C003FE4CF
:02000D003FF0C2
:02000E000000F0
:02000F000010DF
:020010000024CA
:020011000034B9
:020012000048A4
:02001300005893
:02001400006882
:02001500007475
:02001600008068
:0200170000885F
:0200180000885E
:0200190000885D
:02001A00008064
:02001B0000746F
:02001C00006082
:02001D00004C95
:02001E000034AC
:02001F000014CB
:020020003FF4AB
:020021003FD4CA
:020022003FB4E9
:020023003F9408
:020024003F7823
:020025003F5C3E
:020026003F4851
:020027003F3C5C
:020028003F3463
:020029003F385E
:02002A003F4055
:02002B003F5440
:02002C003F7023
:02002D003F9002
:02002E003FBCD5
:02002F003FECA4
:02003000001CB2
:02003100005479
:02003200008844
:0200330000BC0F
:0200340000ECDE
:020035000114B4
:02003600013493
:02003700014C7A
:02003800015471
:02003900015074
:02003A00014083
:02003B000120A2
:02003C0000F4CE
:02003D0000BC05
:02003E00007848
:02003F00002897
:020040003FD4AB
:020041003F80FE
:020042003F2855
:020043003ED4A9
:020044003E84F8
:020045003E4437
:020046003E106A
:020047003DEC8E
:020048003DD8A1
:020049003DDC9C
:02004A003DF87F
:02004B003E284D
:02004C003E7004
:02004D003ECCA7
:02004E003F3839
:02004F003FB8B8
:02005000003C72
:0200510000CCE1
:02005200015853
:0200530001E0CA
:02005400026048
:0200550002CCDB
:02005600032481
:02005700036440
:02005800038023
:02005900037C26
:02005A0003544D
:02005B0003049C
:02005C00029010
:02005D0001F8A8
:02005E0001405F
:02005F00006C33
:020060003F84DB
:020061003E90CF
:020062003D98C7
:020063003CA0BF
:020064003BB8A7
:020065003AE877
:020066003A3C22
:0200670039BCA2
:020068003970ED
:020069003964F8
:02006A00399CBF
:02006B003A2039
:02006C003AEC6C
:02006D003C084D
:02006E003D74DF
:02006F003F2828
:0200700001206D
:02007100035832
:0200720005C0C7
:0200730008542F
:020074000B047B
:020075000DC4B8
:020076001080F8
:02007700133044
:0200780015BCB5
:0200790018204D
:02007A001A4426
:02007B001C2047
:02007C001DA8BD
:02007D001ED48F
:02007E001F9CC5
:02007F001FF868
:00000001ff
