:020000003FAC13
:020001003FE0DE
:020002003FD0ED
:020003003FD0EC
:020004003FC8F3
:020005003FC4F6
:020006003FC0F9
:020007003FC4F4
:020008003FC4F3
:020009003FC8EE
:02000A003FD0E5
:02000B003FD8DC
:02000C003FE4CF
:02000D003FF0C2
:02000E000000F0
:02000F000010DF
:020010000024CA
:020011000038B5
:020012000048A4
:02001300005893
:02001400006882
:02001500007871
:02001600008068
:0200170000885F
:0200180000885E
:0200190000885D
:02001A00008064
:02001B0000746F
:02001C00006082
:02001D00004C95
:02001E000030B0
:02001F000014CB
:020020003FF4AB
:020021003FD4CA
:020022003FB0ED
:020023003F900C
:020024003F7427
:020025003F5C3E
:020026003F4851
:020027003F3C5C
:020028003F3463
:020029003F385E
:02002A003F4055
:02002B003F5440
:02002C003F7023
:02002D003F94FE
:02002E003FBCD5
:02002F003FECA4
:020030000020AE
:02003100005875
:02003200008C40
:0200330000C00B
:0200340000F0DA
:020035000118B0
:0200360001388F
:02003700014C7A
:02003800015471
:02003900015074
:02003A00014083
:02003B000120A2
:02003C0000F0D2
:02003D0000B809
:02003E0000744C
:02003F0000249B
:020040003FD0AF
:020041003F7806
:020042003F205D
:020043003ECCB1
:020044003E80FC
:020045003E403B
:020046003E0C6E
:020047003DE892
:020048003DD8A1
:020049003DE098
:02004A003DFC7B
:02004B003E2C49
:02004C003E7400
:02004D003ED49F
:02004E003F4031
:02004F003FC0B0
:02005000004866
:0200510000D4D9
:0200520001604B
:0200530001E8C2
:02005400026840
:0200550002D4D3
:02005600032C79
:02005700036440
:02005800038023
:02005900037C26
:02005A00035051
:02005B0002FCA5
:02005C00028818
:02005D0001ECB4
:02005E0001346B
:02005F0000603F
:020060003F78E7
:020061003E80DF
:020062003D88D7
:020063003C90CF
:020064003BACB3
:020065003ADC83
:020066003A342A
:0200670039B4AA
:020068003970ED
:020069003968F4
:02006A0039A4B7
:02006B003A2831
:02006C003AFC5C
:02006D003C1C39
:02006E003D8CC7
:02006F003F440C
:02007000014449
:02007100037C0E
:0200720005E89F
:02007300088003
:020074000B304F
:020075000DF08C
:0200760010ACCC
:0200770013581C
:0200780015E48D
:02007900184429
:02007A001A6406
:02007B001C3C2B
:02007C001DBCA9
:02007D001EE47F
:02007E001FA4BD
:02007F001FFC64
:00000001ff
